{
  "_format": "hh-sol-artifact-1",
  "contractName": "openTender",
  "sourceName": "contracts/Tendering.sol",
  "abi": [
    {
      "inputs": [],
      "stateMutability": "nonpayable",
      "type": "constructor"
    },
    {
      "inputs": [
        {
          "internalType": "uint256",
          "name": "_tdrID",
          "type": "uint256"
        },
        {
          "internalType": "string",
          "name": "_name",
          "type": "string"
        }
      ],
      "name": "bid",
      "outputs": [],
      "stateMutability": "payable",
      "type": "function"
    },
    {
      "inputs": [
        {
          "internalType": "address",
          "name": "",
          "type": "address"
        }
      ],
      "name": "bidders",
      "outputs": [
        {
          "internalType": "string",
          "name": "bidderName",
          "type": "string"
        },
        {
          "internalType": "bool",
          "name": "bidded",
          "type": "bool"
        }
      ],
      "stateMutability": "view",
      "type": "function"
    },
    {
      "inputs": [
        {
          "internalType": "string",
          "name": "_title",
          "type": "string"
        },
        {
          "internalType": "string",
          "name": "_industry",
          "type": "string"
        },
        {
          "internalType": "string",
          "name": "_description",
          "type": "string"
        },
        {
          "internalType": "uint256",
          "name": "_bidO",
          "type": "uint256"
        },
        {
          "internalType": "uint256",
          "name": "_bidC",
          "type": "uint256"
        }
      ],
      "name": "createTender",
      "outputs": [],
      "stateMutability": "nonpayable",
      "type": "function"
    },
    {
      "inputs": [
        {
          "internalType": "uint256",
          "name": "_tdrID",
          "type": "uint256"
        }
      ],
      "name": "getBidderCountofTdr",
      "outputs": [
        {
          "internalType": "uint256",
          "name": "count",
          "type": "uint256"
        }
      ],
      "stateMutability": "view",
      "type": "function"
    },
    {
      "inputs": [
        {
          "internalType": "uint256",
          "name": "_tdrID",
          "type": "uint256"
        },
        {
          "internalType": "uint256",
          "name": "_bidID",
          "type": "uint256"
        }
      ],
      "name": "getBiddersOfTdr",
      "outputs": [
        {
          "internalType": "address",
          "name": "biddera",
          "type": "address"
        },
        {
          "internalType": "uint256",
          "name": "bidAmt",
          "type": "uint256"
        }
      ],
      "stateMutability": "view",
      "type": "function"
    },
    {
      "inputs": [],
      "name": "getTdrCount",
      "outputs": [
        {
          "internalType": "uint256",
          "name": "count",
          "type": "uint256"
        }
      ],
      "stateMutability": "view",
      "type": "function"
    },
    {
      "inputs": [
        {
          "internalType": "uint256",
          "name": "_tdrID",
          "type": "uint256"
        }
      ],
      "name": "getTdrInfo",
      "outputs": [
        {
          "components": [
            {
              "internalType": "uint256",
              "name": "id",
              "type": "uint256"
            },
            {
              "internalType": "string",
              "name": "title",
              "type": "string"
            },
            {
              "internalType": "string",
              "name": "industry",
              "type": "string"
            },
            {
              "internalType": "string",
              "name": "desc",
              "type": "string"
            },
            {
              "internalType": "uint256",
              "name": "startTime",
              "type": "uint256"
            },
            {
              "internalType": "uint256",
              "name": "endTime",
              "type": "uint256"
            },
            {
              "internalType": "uint256",
              "name": "minBid",
              "type": "uint256"
            },
            {
              "internalType": "uint256",
              "name": "currentTime",
              "type": "uint256"
            }
          ],
          "internalType": "struct openTender.TenderInfo",
          "name": "",
          "type": "tuple"
        }
      ],
      "stateMutability": "view",
      "type": "function"
    },
    {
      "inputs": [
        {
          "internalType": "uint256",
          "name": "_tdrID",
          "type": "uint256"
        }
      ],
      "name": "getWinningBid",
      "outputs": [
        {
          "internalType": "address",
          "name": "winnerAddress",
          "type": "address"
        },
        {
          "internalType": "string",
          "name": "winnerName",
          "type": "string"
        },
        {
          "internalType": "uint256",
          "name": "winningBidAmt",
          "type": "uint256"
        }
      ],
      "stateMutability": "view",
      "type": "function"
    },
    {
      "inputs": [
        {
          "internalType": "uint256",
          "name": "_tdrID",
          "type": "uint256"
        }
      ],
      "name": "lowestBidOfTdr",
      "outputs": [
        {
          "internalType": "uint256",
          "name": "lowestBid",
          "type": "uint256"
        }
      ],
      "stateMutability": "view",
      "type": "function"
    },
    {
      "inputs": [
        {
          "internalType": "uint256",
          "name": "_tdrID",
          "type": "uint256"
        }
      ],
      "name": "lowestBidderOfTdr",
      "outputs": [
        {
          "internalType": "address",
          "name": "lowestBidderAdr",
          "type": "address"
        }
      ],
      "stateMutability": "view",
      "type": "function"
    },
    {
      "inputs": [],
      "name": "manager",
      "outputs": [
        {
          "internalType": "address",
          "name": "",
          "type": "address"
        }
      ],
      "stateMutability": "view",
      "type": "function"
    },
    {
      "inputs": [
        {
          "internalType": "uint256",
          "name": "_tdrID",
          "type": "uint256"
        }
      ],
      "name": "payTdrMngr",
      "outputs": [],
      "stateMutability": "payable",
      "type": "function"
    },
    {
      "inputs": [
        {
          "internalType": "uint256",
          "name": "",
          "type": "uint256"
        }
      ],
      "name": "tdrs",
      "outputs": [
        {
          "internalType": "uint256",
          "name": "id",
          "type": "uint256"
        },
        {
          "internalType": "string",
          "name": "title",
          "type": "string"
        },
        {
          "internalType": "address",
          "name": "mngr",
          "type": "address"
        },
        {
          "internalType": "string",
          "name": "desc",
          "type": "string"
        },
        {
          "internalType": "string",
          "name": "industry",
          "type": "string"
        },
        {
          "internalType": "uint256",
          "name": "startTime",
          "type": "uint256"
        },
        {
          "internalType": "uint256",
          "name": "endTime",
          "type": "uint256"
        },
        {
          "internalType": "uint256",
          "name": "accBal",
          "type": "uint256"
        },
        {
          "internalType": "uint256",
          "name": "minBid",
          "type": "uint256"
        },
        {
          "internalType": "address",
          "name": "lowestBidder",
          "type": "address"
        },
        {
          "internalType": "uint256",
          "name": "bidCount",
          "type": "uint256"
        }
      ],
      "stateMutability": "view",
      "type": "function"
    },
    {
      "inputs": [
        {
          "internalType": "uint256",
          "name": "_tdrID",
          "type": "uint256"
        }
      ],
      "name": "withdrawFunds",
      "outputs": [],
      "stateMutability": "payable",
      "type": "function"
    }
  ],
  "bytecode": "0x608060405234801561001057600080fd5b5033600260006101000a81548173ffffffffffffffffffffffffffffffffffffffff021916908373ffffffffffffffffffffffffffffffffffffffff16021790555061250e806100616000396000f3fe6080604052600436106100dd5760003560e01c80636a0da6f41161007f57806398bddce81161005957806398bddce8146102bf578063af6761e4146102fd578063ebaaa7f814610326578063fcc8f7931461036d576100dd565b80636a0da6f4146102085780637220a9a01461024557806384facb1b14610282576100dd565b8063263b20bd116100bb578063263b20bd1461013657806345ae5daf14610173578063481c6a751461019e5780636891939d146101c9576100dd565b80630fc55fd1146100e2578063155dd5ee146100fe57806325f084d51461011a575b600080fd5b6100fc60048036038101906100f79190611a1f565b6103ab565b005b61011860048036038101906101139190611a7b565b610904565b005b610134600480360381019061012f9190611a7b565b610b99565b005b34801561014257600080fd5b5061015d60048036038101906101589190611a7b565b610d8d565b60405161016a9190611ab7565b60405180910390f35b34801561017f57600080fd5b50610188610dac565b6040516101959190611ab7565b60405180910390f35b3480156101aa57600080fd5b506101b3610db6565b6040516101c09190611b13565b60405180910390f35b3480156101d557600080fd5b506101f060048036038101906101eb9190611a7b565b610ddc565b6040516101ff93929190611bb6565b60405180910390f35b34801561021457600080fd5b5061022f600480360381019061022a9190611a7b565b610f95565b60405161023c9190611b13565b60405180910390f35b34801561025157600080fd5b5061026c60048036038101906102679190611a7b565b610fd4565b6040516102799190611d0b565b60405180910390f35b34801561028e57600080fd5b506102a960048036038101906102a49190611a7b565b611248565b6040516102b69190611ab7565b60405180910390f35b3480156102cb57600080fd5b506102e660048036038101906102e19190611d2d565b611267565b6040516102f4929190611d6d565b60405180910390f35b34801561030957600080fd5b50610324600480360381019061031f9190611d96565b611356565b005b34801561033257600080fd5b5061034d60048036038101906103489190611a7b565b6114bc565b6040516103649b9a99989796959493929190611e65565b60405180910390f35b34801561037957600080fd5b50610394600480360381019061038f9190611f51565b6116ee565b6040516103a2929190611f99565b60405180910390f35b426000808481526020019081526020016000206005015410610402576040517f08c379a00000000000000000000000000000000000000000000000000000000081526004016103f990612015565b60405180910390fd5b426000808481526020019081526020016000206006015411610459576040517f08c379a000000000000000000000000000000000000000000000000000000000815260040161045090612081565b60405180910390fd5b600160003373ffffffffffffffffffffffffffffffffffffffff1673ffffffffffffffffffffffffffffffffffffffff16815260200190815260200160002060010160009054906101000a900460ff16801561050857506000600160003373ffffffffffffffffffffffffffffffffffffffff1673ffffffffffffffffffffffffffffffffffffffff168152602001908152602001600020600201600084815260200190815260200160002054115b156105b157600160003373ffffffffffffffffffffffffffffffffffffffff1673ffffffffffffffffffffffffffffffffffffffff1681526020019081526020016000206002016000838152602001908152602001600020543461056c91906120d0565b6005819055506000806000848152602001908152602001600020600a015414156105ac576001600080848152602001908152602001600020600a01819055505b61065e565b3460058190555033600080848152602001908152602001600020600b016000806000868152602001908152602001600020600a0154815260200190815260200160002060006101000a81548173ffffffffffffffffffffffffffffffffffffffff021916908373ffffffffffffffffffffffffffffffffffffffff160217905550600080838152602001908152602001600020600a01600081548092919061065890612126565b91905055505b6000808381526020019081526020016000206008015460055410806106985750600080600084815260200190815260200160002060080154145b6106d7576040517f08c379a00000000000000000000000000000000000000000000000000000000081526004016106ce906121e1565b60405180910390fd5b6000600160003373ffffffffffffffffffffffffffffffffffffffff1673ffffffffffffffffffffffffffffffffffffffff1681526020019081526020016000209050818160000190805190602001906107329291906117a7565b5060018160010160006101000a81548160ff02191690831515021790555060055481600201600085815260200190815260200160002081905550600554600080858152602001908152602001600020600701600082825461079391906120d0565b9250508190555060008084815260200190815260200160002060080154600160003373ffffffffffffffffffffffffffffffffffffffff1673ffffffffffffffffffffffffffffffffffffffff168152602001908152602001600020600201600085815260200190815260200160002054101561087b57600554600080858152602001908152602001600020600801819055503360008085815260200190815260200160002060090160006101000a81548173ffffffffffffffffffffffffffffffffffffffff021916908373ffffffffffffffffffffffffffffffffffffffff1602179055505b610258426000808681526020019081526020016000206006015461089f9190612201565b10156108ff5742600080858152602001908152602001600020600601546108c69190612201565b6102586108d39190612201565b60008085815260200190815260200160002060060160008282546108f791906120d0565b925050819055505b505050565b42600080838152602001908152602001600020600601541061095b576040517f08c379a000000000000000000000000000000000000000000000000000000000815260040161095290612281565b60405180910390fd5b6000600160003373ffffffffffffffffffffffffffffffffffffffff1673ffffffffffffffffffffffffffffffffffffffff168152602001908152602001600020600201600083815260200190815260200160002054116109f1576040517f08c379a00000000000000000000000000000000000000000000000000000000081526004016109e890612313565b60405180910390fd5b60003373ffffffffffffffffffffffffffffffffffffffff166108fc600160003373ffffffffffffffffffffffffffffffffffffffff1673ffffffffffffffffffffffffffffffffffffffff1681526020019081526020016000206002016000858152602001908152602001600020549081150290604051600060405180830381858888f19350505050905080610abd576040517f08c379a0000000000000000000000000000000000000000000000000000000008152600401610ab49061237f565b60405180910390fd5b600160003373ffffffffffffffffffffffffffffffffffffffff1673ffffffffffffffffffffffffffffffffffffffff1681526020019081526020016000206002016000838152602001908152602001600020546000808481526020019081526020016000206007016000828254610b359190612201565b925050819055506000600160003373ffffffffffffffffffffffffffffffffffffffff1673ffffffffffffffffffffffffffffffffffffffff1681526020019081526020016000206002016000848152602001908152602001600020819055505050565b600260009054906101000a900473ffffffffffffffffffffffffffffffffffffffff1673ffffffffffffffffffffffffffffffffffffffff163373ffffffffffffffffffffffffffffffffffffffff1614610bf357600080fd5b426000808381526020019081526020016000206006015410610c4a576040517f08c379a0000000000000000000000000000000000000000000000000000000008152600401610c4190612281565b60405180910390fd5b60008060008381526020019081526020016000206008015411610ca2576040517f08c379a0000000000000000000000000000000000000000000000000000000008152600401610c99906123eb565b60405180910390fd5b60003373ffffffffffffffffffffffffffffffffffffffff166108fc600160003373ffffffffffffffffffffffffffffffffffffffff1673ffffffffffffffffffffffffffffffffffffffff1681526020019081526020016000206002016000858152602001908152602001600020549081150290604051600060405180830381858888f19350505050905080610d6e576040517f08c379a0000000000000000000000000000000000000000000000000000000008152600401610d6590612457565b60405180910390fd5b6000806000848152602001908152602001600020600801819055505050565b6000806000838152602001908152602001600020600a01549050919050565b6000600354905090565b600260009054906101000a900473ffffffffffffffffffffffffffffffffffffffff1681565b600060606000426000808681526020019081526020016000206006015410610e39576040517f08c379a0000000000000000000000000000000000000000000000000000000008152600401610e3090612281565b60405180910390fd5b60008085815260200190815260200160002060090160009054906101000a900473ffffffffffffffffffffffffffffffffffffffff166001600080600088815260200190815260200160002060090160009054906101000a900473ffffffffffffffffffffffffffffffffffffffff1673ffffffffffffffffffffffffffffffffffffffff1673ffffffffffffffffffffffffffffffffffffffff16815260200190815260200160002060000160008087815260200190815260200160002060080154818054610f08906124a6565b80601f0160208091040260200160405190810160405280929190818152602001828054610f34906124a6565b8015610f815780601f10610f5657610100808354040283529160200191610f81565b820191906000526020600020905b815481529060010190602001808311610f6457829003601f168201915b505050505091509250925092509193909250565b600080600083815260200190815260200160002060090160009054906101000a900473ffffffffffffffffffffffffffffffffffffffff169050919050565b610fdc61182d565b6040518061010001604052806000808581526020019081526020016000206000015481526020016000808581526020019081526020016000206001018054611023906124a6565b80601f016020809104026020016040519081016040528092919081815260200182805461104f906124a6565b801561109c5780601f106110715761010080835404028352916020019161109c565b820191906000526020600020905b81548152906001019060200180831161107f57829003601f168201915b5050505050815260200160008085815260200190815260200160002060040180546110c6906124a6565b80601f01602080910402602001604051908101604052809291908181526020018280546110f2906124a6565b801561113f5780601f106111145761010080835404028352916020019161113f565b820191906000526020600020905b81548152906001019060200180831161112257829003601f168201915b505050505081526020016000808581526020019081526020016000206003018054611169906124a6565b80601f0160208091040260200160405190810160405280929190818152602001828054611195906124a6565b80156111e25780601f106111b7576101008083540402835291602001916111e2565b820191906000526020600020905b8154815290600101906020018083116111c557829003601f168201915b50505050508152602001600080858152602001908152602001600020600501548152602001600080858152602001908152602001600020600601548152602001600080858152602001908152602001600020600801548152602001428152509050919050565b6000806000838152602001908152602001600020600801549050919050565b600080600080858152602001908152602001600020600b01600084815260200190815260200160002060009054906101000a900473ffffffffffffffffffffffffffffffffffffffff1660016000806000888152602001908152602001600020600b01600087815260200190815260200160002060009054906101000a900473ffffffffffffffffffffffffffffffffffffffff1673ffffffffffffffffffffffffffffffffffffffff1673ffffffffffffffffffffffffffffffffffffffff168152602001908152602001600020600201600086815260200190815260200160002054915091509250929050565b600260009054906101000a900473ffffffffffffffffffffffffffffffffffffffff1673ffffffffffffffffffffffffffffffffffffffff163373ffffffffffffffffffffffffffffffffffffffff16146113b057600080fd5b6000806000600354815260200190815260200160002090506003548160000181905550858160010190805190602001906113eb9291906117a7565b50838160030190805190602001906114049291906117a7565b508481600401908051906020019061141d9291906117a7565b50828160050181905550818160060181905550338160020160006101000a81548173ffffffffffffffffffffffffffffffffffffffff021916908373ffffffffffffffffffffffffffffffffffffffff1602179055507fffffffffffffffffffffffffffffffffffffffffffffffffffffffffffffffff8160080181905550600360008154809291906114af90612126565b9190505550505050505050565b60006020528060005260406000206000915090508060000154908060010180546114e5906124a6565b80601f0160208091040260200160405190810160405280929190818152602001828054611511906124a6565b801561155e5780601f106115335761010080835404028352916020019161155e565b820191906000526020600020905b81548152906001019060200180831161154157829003601f168201915b5050505050908060020160009054906101000a900473ffffffffffffffffffffffffffffffffffffffff1690806003018054611599906124a6565b80601f01602080910402602001604051908101604052809291908181526020018280546115c5906124a6565b80156116125780601f106115e757610100808354040283529160200191611612565b820191906000526020600020905b8154815290600101906020018083116115f557829003601f168201915b505050505090806004018054611627906124a6565b80601f0160208091040260200160405190810160405280929190818152602001828054611653906124a6565b80156116a05780601f10611675576101008083540402835291602001916116a0565b820191906000526020600020905b81548152906001019060200180831161168357829003601f168201915b5050505050908060050154908060060154908060070154908060080154908060090160009054906101000a900473ffffffffffffffffffffffffffffffffffffffff169080600a015490508b565b6001602052806000526040600020600091509050806000018054611711906124a6565b80601f016020809104026020016040519081016040528092919081815260200182805461173d906124a6565b801561178a5780601f1061175f5761010080835404028352916020019161178a565b820191906000526020600020905b81548152906001019060200180831161176d57829003601f168201915b5050505050908060010160009054906101000a900460ff16905082565b8280546117b3906124a6565b90600052602060002090601f0160209004810192826117d5576000855561181c565b82601f106117ee57805160ff191683800117855561181c565b8280016001018555821561181c579182015b8281111561181b578251825591602001919060010190611800565b5b5090506118299190611872565b5090565b60405180610100016040528060008152602001606081526020016060815260200160608152602001600081526020016000815260200160008152602001600081525090565b5b8082111561188b576000816000905550600101611873565b5090565b6000604051905090565b600080fd5b600080fd5b6000819050919050565b6118b6816118a3565b81146118c157600080fd5b50565b6000813590506118d3816118ad565b92915050565b600080fd5b600080fd5b6000601f19601f8301169050919050565b7f4e487b7100000000000000000000000000000000000000000000000000000000600052604160045260246000fd5b61192c826118e3565b810181811067ffffffffffffffff8211171561194b5761194a6118f4565b5b80604052505050565b600061195e61188f565b905061196a8282611923565b919050565b600067ffffffffffffffff82111561198a576119896118f4565b5b611993826118e3565b9050602081019050919050565b82818337600083830152505050565b60006119c26119bd8461196f565b611954565b9050828152602081018484840111156119de576119dd6118de565b5b6119e98482856119a0565b509392505050565b600082601f830112611a0657611a056118d9565b5b8135611a168482602086016119af565b91505092915050565b60008060408385031215611a3657611a35611899565b5b6000611a44858286016118c4565b925050602083013567ffffffffffffffff811115611a6557611a6461189e565b5b611a71858286016119f1565b9150509250929050565b600060208284031215611a9157611a90611899565b5b6000611a9f848285016118c4565b91505092915050565b611ab1816118a3565b82525050565b6000602082019050611acc6000830184611aa8565b92915050565b600073ffffffffffffffffffffffffffffffffffffffff82169050919050565b6000611afd82611ad2565b9050919050565b611b0d81611af2565b82525050565b6000602082019050611b286000830184611b04565b92915050565b600081519050919050565b600082825260208201905092915050565b60005b83811015611b68578082015181840152602081019050611b4d565b83811115611b77576000848401525b50505050565b6000611b8882611b2e565b611b928185611b39565b9350611ba2818560208601611b4a565b611bab816118e3565b840191505092915050565b6000606082019050611bcb6000830186611b04565b8181036020830152611bdd8185611b7d565b9050611bec6040830184611aa8565b949350505050565b611bfd816118a3565b82525050565b600082825260208201905092915050565b6000611c1f82611b2e565b611c298185611c03565b9350611c39818560208601611b4a565b611c42816118e3565b840191505092915050565b600061010083016000830151611c666000860182611bf4565b5060208301518482036020860152611c7e8282611c14565b91505060408301518482036040860152611c988282611c14565b91505060608301518482036060860152611cb28282611c14565b9150506080830151611cc76080860182611bf4565b5060a0830151611cda60a0860182611bf4565b5060c0830151611ced60c0860182611bf4565b5060e0830151611d0060e0860182611bf4565b508091505092915050565b60006020820190508181036000830152611d258184611c4d565b905092915050565b60008060408385031215611d4457611d43611899565b5b6000611d52858286016118c4565b9250506020611d63858286016118c4565b9150509250929050565b6000604082019050611d826000830185611b04565b611d8f6020830184611aa8565b9392505050565b600080600080600060a08688031215611db257611db1611899565b5b600086013567ffffffffffffffff811115611dd057611dcf61189e565b5b611ddc888289016119f1565b955050602086013567ffffffffffffffff811115611dfd57611dfc61189e565b5b611e09888289016119f1565b945050604086013567ffffffffffffffff811115611e2a57611e2961189e565b5b611e36888289016119f1565b9350506060611e47888289016118c4565b9250506080611e58888289016118c4565b9150509295509295909350565b600061016082019050611e7b600083018e611aa8565b8181036020830152611e8d818d611b7d565b9050611e9c604083018c611b04565b8181036060830152611eae818b611b7d565b90508181036080830152611ec2818a611b7d565b9050611ed160a0830189611aa8565b611ede60c0830188611aa8565b611eeb60e0830187611aa8565b611ef9610100830186611aa8565b611f07610120830185611b04565b611f15610140830184611aa8565b9c9b505050505050505050505050565b611f2e81611af2565b8114611f3957600080fd5b50565b600081359050611f4b81611f25565b92915050565b600060208284031215611f6757611f66611899565b5b6000611f7584828501611f3c565b91505092915050565b60008115159050919050565b611f9381611f7e565b82525050565b60006040820190508181036000830152611fb38185611b7d565b9050611fc26020830184611f8a565b9392505050565b7f42696420686173206e6f7420737461727465642e000000000000000000000000600082015250565b6000611fff601483611b39565b915061200a82611fc9565b602082019050919050565b6000602082019050818103600083015261202e81611ff2565b9050919050565b7f4269642068617320656e6465642e000000000000000000000000000000000000600082015250565b600061206b600e83611b39565b915061207682612035565b602082019050919050565b6000602082019050818103600083015261209a8161205e565b9050919050565b7f4e487b7100000000000000000000000000000000000000000000000000000000600052601160045260246000fd5b60006120db826118a3565b91506120e6836118a3565b9250827fffffffffffffffffffffffffffffffffffffffffffffffffffffffffffffffff0382111561211b5761211a6120a1565b5b828201905092915050565b6000612131826118a3565b91507fffffffffffffffffffffffffffffffffffffffffffffffffffffffffffffffff821415612164576121636120a1565b5b600182019050919050565b7f42696420697320686967686572207468616e207468652063757272656e74206260008201527f69642e0000000000000000000000000000000000000000000000000000000000602082015250565b60006121cb602383611b39565b91506121d68261216f565b604082019050919050565b600060208201905081810360008301526121fa816121be565b9050919050565b600061220c826118a3565b9150612217836118a3565b92508282101561222a576122296120a1565b5b828203905092915050565b7f42696420686173206e6f7420656e6465642e0000000000000000000000000000600082015250565b600061226b601283611b39565b915061227682612235565b602082019050919050565b6000602082019050818103600083015261229a8161225e565b9050919050565b7f596f7520646f206e6f74206861766520616e796d6f726520657468657220746f60008201527f2077697468647261772066726f6d2074686520636f6e74726163742e00000000602082015250565b60006122fd603c83611b39565b9150612308826122a1565b604082019050919050565b6000602082019050818103600083015261232c816122f0565b9050919050565b7f4572726f72000000000000000000000000000000000000000000000000000000600082015250565b6000612369600583611b39565b915061237482612333565b602082019050919050565b600060208201905081810360008301526123988161235c565b9050919050565b7f4e6f206269647320706c616365642e0000000000000000000000000000000000600082015250565b60006123d5600f83611b39565b91506123e08261239f565b602082019050919050565b60006020820190508181036000830152612404816123c8565b9050919050565b7f5061796d656e74206661696c6564000000000000000000000000000000000000600082015250565b6000612441600e83611b39565b915061244c8261240b565b602082019050919050565b6000602082019050818103600083015261247081612434565b9050919050565b7f4e487b7100000000000000000000000000000000000000000000000000000000600052602260045260246000fd5b600060028204905060018216806124be57607f821691505b602082108114156124d2576124d1612477565b5b5091905056fea2646970667358221220593bcf3aed18f7ffbe88bb46dd71cde97293bb96a6e04467aa692b2123efb38c64736f6c63430008090033",
  "linkReferences": {},
  "deployedLinkReferences": {}
}