{
  "_format": "hh-sol-artifact-1",
  "contractName": "openTender",
  "sourceName": "contracts/Tendering.sol",
  "abi": [
    {
      "inputs": [],
      "stateMutability": "nonpayable",
      "type": "constructor"
    },
    {
      "inputs": [
        {
          "internalType": "uint256",
          "name": "_tdrID",
          "type": "uint256"
        },
        {
          "internalType": "string",
          "name": "_name",
          "type": "string"
        }
      ],
      "name": "bid",
      "outputs": [],
      "stateMutability": "payable",
      "type": "function"
    },
    {
      "inputs": [
        {
          "internalType": "address",
          "name": "",
          "type": "address"
        }
      ],
      "name": "bidders",
      "outputs": [
        {
          "internalType": "string",
          "name": "bidderName",
          "type": "string"
        },
        {
          "internalType": "bool",
          "name": "bidded",
          "type": "bool"
        }
      ],
      "stateMutability": "view",
      "type": "function"
    },
    {
      "inputs": [
        {
          "internalType": "string",
          "name": "_title",
          "type": "string"
        },
        {
          "internalType": "string",
          "name": "_industry",
          "type": "string"
        },
        {
          "internalType": "string",
          "name": "_description",
          "type": "string"
        },
        {
          "internalType": "uint256",
          "name": "_bidO",
          "type": "uint256"
        },
        {
          "internalType": "uint256",
          "name": "_bidC",
          "type": "uint256"
        }
      ],
      "name": "createTender",
      "outputs": [],
      "stateMutability": "nonpayable",
      "type": "function"
    },
    {
      "inputs": [
        {
          "internalType": "uint256",
          "name": "_tdrID",
          "type": "uint256"
        }
      ],
      "name": "getBidderCountofTdr",
      "outputs": [
        {
          "internalType": "uint256",
          "name": "count",
          "type": "uint256"
        }
      ],
      "stateMutability": "view",
      "type": "function"
    },
    {
      "inputs": [
        {
          "internalType": "uint256",
          "name": "_tdrID",
          "type": "uint256"
        },
        {
          "internalType": "uint256",
          "name": "_bidID",
          "type": "uint256"
        }
      ],
      "name": "getBiddersOfTdr",
      "outputs": [
        {
          "internalType": "address",
          "name": "biddera",
          "type": "address"
        },
        {
          "internalType": "uint256",
          "name": "bidAmt",
          "type": "uint256"
        }
      ],
      "stateMutability": "view",
      "type": "function"
    },
    {
      "inputs": [],
      "name": "getTdrCount",
      "outputs": [
        {
          "internalType": "uint256",
          "name": "count",
          "type": "uint256"
        }
      ],
      "stateMutability": "view",
      "type": "function"
    },
    {
      "inputs": [
        {
          "internalType": "uint256",
          "name": "_tdrID",
          "type": "uint256"
        }
      ],
      "name": "getTdrInfo",
      "outputs": [
        {
          "components": [
            {
              "internalType": "uint256",
              "name": "id",
              "type": "uint256"
            },
            {
              "internalType": "string",
              "name": "title",
              "type": "string"
            },
            {
              "internalType": "string",
              "name": "industry",
              "type": "string"
            },
            {
              "internalType": "string",
              "name": "desc",
              "type": "string"
            },
            {
              "internalType": "uint256",
              "name": "startTime",
              "type": "uint256"
            },
            {
              "internalType": "uint256",
              "name": "endTime",
              "type": "uint256"
            },
            {
              "internalType": "uint256",
              "name": "maxBid",
              "type": "uint256"
            },
            {
              "internalType": "uint256",
              "name": "currentTime",
              "type": "uint256"
            }
          ],
          "internalType": "struct openTender.TenderInfo",
          "name": "",
          "type": "tuple"
        }
      ],
      "stateMutability": "view",
      "type": "function"
    },
    {
      "inputs": [
        {
          "internalType": "uint256",
          "name": "_tdrID",
          "type": "uint256"
        }
      ],
      "name": "getWinningBid",
      "outputs": [
        {
          "internalType": "address",
          "name": "winnerAddress",
          "type": "address"
        },
        {
          "internalType": "string",
          "name": "winnerName",
          "type": "string"
        },
        {
          "internalType": "uint256",
          "name": "winningBidAmt",
          "type": "uint256"
        }
      ],
      "stateMutability": "view",
      "type": "function"
    },
    {
      "inputs": [
        {
          "internalType": "uint256",
          "name": "_tdrID",
          "type": "uint256"
        }
      ],
      "name": "highestBidOfTdr",
      "outputs": [
        {
          "internalType": "uint256",
          "name": "highestBid",
          "type": "uint256"
        }
      ],
      "stateMutability": "view",
      "type": "function"
    },
    {
      "inputs": [
        {
          "internalType": "uint256",
          "name": "_tdrID",
          "type": "uint256"
        }
      ],
      "name": "highestBidderOfTdr",
      "outputs": [
        {
          "internalType": "address",
          "name": "highestBidderAdr",
          "type": "address"
        }
      ],
      "stateMutability": "view",
      "type": "function"
    },
    {
      "inputs": [],
      "name": "manager",
      "outputs": [
        {
          "internalType": "address",
          "name": "",
          "type": "address"
        }
      ],
      "stateMutability": "view",
      "type": "function"
    },
    {
      "inputs": [
        {
          "internalType": "uint256",
          "name": "_tdrID",
          "type": "uint256"
        }
      ],
      "name": "payTdrMngr",
      "outputs": [],
      "stateMutability": "payable",
      "type": "function"
    },
    {
      "inputs": [
        {
          "internalType": "uint256",
          "name": "",
          "type": "uint256"
        }
      ],
      "name": "tdrs",
      "outputs": [
        {
          "internalType": "uint256",
          "name": "id",
          "type": "uint256"
        },
        {
          "internalType": "string",
          "name": "title",
          "type": "string"
        },
        {
          "internalType": "address",
          "name": "mngr",
          "type": "address"
        },
        {
          "internalType": "string",
          "name": "desc",
          "type": "string"
        },
        {
          "internalType": "string",
          "name": "industry",
          "type": "string"
        },
        {
          "internalType": "uint256",
          "name": "startTime",
          "type": "uint256"
        },
        {
          "internalType": "uint256",
          "name": "endTime",
          "type": "uint256"
        },
        {
          "internalType": "uint256",
          "name": "accBal",
          "type": "uint256"
        },
        {
          "internalType": "uint256",
          "name": "maxBid",
          "type": "uint256"
        },
        {
          "internalType": "address",
          "name": "highestBidder",
          "type": "address"
        },
        {
          "internalType": "uint256",
          "name": "bidCount",
          "type": "uint256"
        }
      ],
      "stateMutability": "view",
      "type": "function"
    },
    {
      "inputs": [
        {
          "internalType": "uint256",
          "name": "_tdrID",
          "type": "uint256"
        }
      ],
      "name": "withdrawFunds",
      "outputs": [],
      "stateMutability": "payable",
      "type": "function"
    }
  ],
  "bytecode": "0x608060405234801561001057600080fd5b5033600260006101000a81548173ffffffffffffffffffffffffffffffffffffffff021916908373ffffffffffffffffffffffffffffffffffffffff1602179055506124a9806100616000396000f3fe6080604052600436106100dd5760003560e01c80637220a9a01161007f578063af6761e411610059578063af6761e4146102c0578063c1b80d44146102e9578063ebaaa7f814610326578063fcc8f7931461036d576100dd565b80637220a9a01461020857806398bddce814610245578063a09bff4114610283576100dd565b8063263b20bd116100bb578063263b20bd1461013657806345ae5daf14610173578063481c6a751461019e5780636891939d146101c9576100dd565b80630fc55fd1146100e2578063155dd5ee146100fe57806325f084d51461011a575b600080fd5b6100fc60048036038101906100f791906119ba565b6103ab565b005b61011860048036038101906101139190611a16565b6108e4565b005b610134600480360381019061012f9190611a16565b610b79565b005b34801561014257600080fd5b5061015d60048036038101906101589190611a16565b610d51565b60405161016a9190611a52565b60405180910390f35b34801561017f57600080fd5b50610188610d70565b6040516101959190611a52565b60405180910390f35b3480156101aa57600080fd5b506101b3610d7a565b6040516101c09190611aae565b60405180910390f35b3480156101d557600080fd5b506101f060048036038101906101eb9190611a16565b610da0565b6040516101ff93929190611b51565b60405180910390f35b34801561021457600080fd5b5061022f600480360381019061022a9190611a16565b610f59565b60405161023c9190611ca6565b60405180910390f35b34801561025157600080fd5b5061026c60048036038101906102679190611cc8565b6111cd565b60405161027a929190611d08565b60405180910390f35b34801561028f57600080fd5b506102aa60048036038101906102a59190611a16565b6112bc565b6040516102b79190611a52565b60405180910390f35b3480156102cc57600080fd5b506102e760048036038101906102e29190611d31565b6112db565b005b3480156102f557600080fd5b50610310600480360381019061030b9190611a16565b611418565b60405161031d9190611aae565b60405180910390f35b34801561033257600080fd5b5061034d60048036038101906103489190611a16565b611457565b6040516103649b9a99989796959493929190611e00565b60405180910390f35b34801561037957600080fd5b50610394600480360381019061038f9190611eec565b611689565b6040516103a2929190611f34565b60405180910390f35b426000808481526020019081526020016000206005015410610402576040517f08c379a00000000000000000000000000000000000000000000000000000000081526004016103f990611fb0565b60405180910390fd5b426000808481526020019081526020016000206006015411610459576040517f08c379a00000000000000000000000000000000000000000000000000000000081526004016104509061201c565b60405180910390fd5b600160003373ffffffffffffffffffffffffffffffffffffffff1673ffffffffffffffffffffffffffffffffffffffff16815260200190815260200160002060010160009054906101000a900460ff16801561050857506000600160003373ffffffffffffffffffffffffffffffffffffffff1673ffffffffffffffffffffffffffffffffffffffff168152602001908152602001600020600201600084815260200190815260200160002054115b156105b157600160003373ffffffffffffffffffffffffffffffffffffffff1673ffffffffffffffffffffffffffffffffffffffff1681526020019081526020016000206002016000838152602001908152602001600020543461056c919061206b565b6005819055506000806000848152602001908152602001600020600a015414156105ac576001600080848152602001908152602001600020600a01819055505b61065e565b3460058190555033600080848152602001908152602001600020600b016000806000868152602001908152602001600020600a0154815260200190815260200160002060006101000a81548173ffffffffffffffffffffffffffffffffffffffff021916908373ffffffffffffffffffffffffffffffffffffffff160217905550600080838152602001908152602001600020600a016000815480929190610658906120c1565b91905055505b60008083815260200190815260200160002060080154600554116106b7576040517f08c379a00000000000000000000000000000000000000000000000000000000081526004016106ae9061217c565b60405180910390fd5b6000600160003373ffffffffffffffffffffffffffffffffffffffff1673ffffffffffffffffffffffffffffffffffffffff168152602001908152602001600020905081816000019080519060200190610712929190611742565b5060018160010160006101000a81548160ff021916908315150217905550600554816002016000858152602001908152602001600020819055506005546000808581526020019081526020016000206007016000828254610773919061206b565b9250508190555060008084815260200190815260200160002060080154600160003373ffffffffffffffffffffffffffffffffffffffff1673ffffffffffffffffffffffffffffffffffffffff168152602001908152602001600020600201600085815260200190815260200160002054111561085b57600554600080858152602001908152602001600020600801819055503360008085815260200190815260200160002060090160006101000a81548173ffffffffffffffffffffffffffffffffffffffff021916908373ffffffffffffffffffffffffffffffffffffffff1602179055505b610258426000808681526020019081526020016000206006015461087f919061219c565b10156108df5742600080858152602001908152602001600020600601546108a6919061219c565b6102586108b3919061219c565b60008085815260200190815260200160002060060160008282546108d7919061206b565b925050819055505b505050565b42600080838152602001908152602001600020600601541061093b576040517f08c379a00000000000000000000000000000000000000000000000000000000081526004016109329061221c565b60405180910390fd5b6000600160003373ffffffffffffffffffffffffffffffffffffffff1673ffffffffffffffffffffffffffffffffffffffff168152602001908152602001600020600201600083815260200190815260200160002054116109d1576040517f08c379a00000000000000000000000000000000000000000000000000000000081526004016109c8906122ae565b60405180910390fd5b60003373ffffffffffffffffffffffffffffffffffffffff166108fc600160003373ffffffffffffffffffffffffffffffffffffffff1673ffffffffffffffffffffffffffffffffffffffff1681526020019081526020016000206002016000858152602001908152602001600020549081150290604051600060405180830381858888f19350505050905080610a9d576040517f08c379a0000000000000000000000000000000000000000000000000000000008152600401610a949061231a565b60405180910390fd5b600160003373ffffffffffffffffffffffffffffffffffffffff1673ffffffffffffffffffffffffffffffffffffffff1681526020019081526020016000206002016000838152602001908152602001600020546000808481526020019081526020016000206007016000828254610b15919061219c565b925050819055506000600160003373ffffffffffffffffffffffffffffffffffffffff1673ffffffffffffffffffffffffffffffffffffffff1681526020019081526020016000206002016000848152602001908152602001600020819055505050565b600260009054906101000a900473ffffffffffffffffffffffffffffffffffffffff1673ffffffffffffffffffffffffffffffffffffffff163373ffffffffffffffffffffffffffffffffffffffff1614610bd357600080fd5b426000808381526020019081526020016000206006015410610c2a576040517f08c379a0000000000000000000000000000000000000000000000000000000008152600401610c219061221c565b60405180910390fd5b60008060008381526020019081526020016000206008015411610c82576040517f08c379a0000000000000000000000000000000000000000000000000000000008152600401610c7990612386565b60405180910390fd5b6000600260009054906101000a900473ffffffffffffffffffffffffffffffffffffffff1673ffffffffffffffffffffffffffffffffffffffff166108fc600080858152602001908152602001600020600801549081150290604051600060405180830381858888f19350505050905080610d32576040517f08c379a0000000000000000000000000000000000000000000000000000000008152600401610d29906123f2565b60405180910390fd5b6000806000848152602001908152602001600020600801819055505050565b6000806000838152602001908152602001600020600a01549050919050565b6000600354905090565b600260009054906101000a900473ffffffffffffffffffffffffffffffffffffffff1681565b600060606000426000808681526020019081526020016000206006015410610dfd576040517f08c379a0000000000000000000000000000000000000000000000000000000008152600401610df49061221c565b60405180910390fd5b60008085815260200190815260200160002060090160009054906101000a900473ffffffffffffffffffffffffffffffffffffffff166001600080600088815260200190815260200160002060090160009054906101000a900473ffffffffffffffffffffffffffffffffffffffff1673ffffffffffffffffffffffffffffffffffffffff1673ffffffffffffffffffffffffffffffffffffffff16815260200190815260200160002060000160008087815260200190815260200160002060080154818054610ecc90612441565b80601f0160208091040260200160405190810160405280929190818152602001828054610ef890612441565b8015610f455780601f10610f1a57610100808354040283529160200191610f45565b820191906000526020600020905b815481529060010190602001808311610f2857829003601f168201915b505050505091509250925092509193909250565b610f616117c8565b6040518061010001604052806000808581526020019081526020016000206000015481526020016000808581526020019081526020016000206001018054610fa890612441565b80601f0160208091040260200160405190810160405280929190818152602001828054610fd490612441565b80156110215780601f10610ff657610100808354040283529160200191611021565b820191906000526020600020905b81548152906001019060200180831161100457829003601f168201915b50505050508152602001600080858152602001908152602001600020600401805461104b90612441565b80601f016020809104026020016040519081016040528092919081815260200182805461107790612441565b80156110c45780601f10611099576101008083540402835291602001916110c4565b820191906000526020600020905b8154815290600101906020018083116110a757829003601f168201915b5050505050815260200160008085815260200190815260200160002060030180546110ee90612441565b80601f016020809104026020016040519081016040528092919081815260200182805461111a90612441565b80156111675780601f1061113c57610100808354040283529160200191611167565b820191906000526020600020905b81548152906001019060200180831161114a57829003601f168201915b50505050508152602001600080858152602001908152602001600020600501548152602001600080858152602001908152602001600020600601548152602001600080858152602001908152602001600020600801548152602001428152509050919050565b600080600080858152602001908152602001600020600b01600084815260200190815260200160002060009054906101000a900473ffffffffffffffffffffffffffffffffffffffff1660016000806000888152602001908152602001600020600b01600087815260200190815260200160002060009054906101000a900473ffffffffffffffffffffffffffffffffffffffff1673ffffffffffffffffffffffffffffffffffffffff1673ffffffffffffffffffffffffffffffffffffffff168152602001908152602001600020600201600086815260200190815260200160002054915091509250929050565b6000806000838152602001908152602001600020600801549050919050565b600260009054906101000a900473ffffffffffffffffffffffffffffffffffffffff1673ffffffffffffffffffffffffffffffffffffffff163373ffffffffffffffffffffffffffffffffffffffff161461133557600080fd5b600080600060035481526020019081526020016000209050600354816000018190555085816001019080519060200190611370929190611742565b5083816003019080519060200190611389929190611742565b50848160040190805190602001906113a2929190611742565b50828160050181905550818160060181905550338160020160006101000a81548173ffffffffffffffffffffffffffffffffffffffff021916908373ffffffffffffffffffffffffffffffffffffffff1602179055506003600081548092919061140b906120c1565b9190505550505050505050565b600080600083815260200190815260200160002060090160009054906101000a900473ffffffffffffffffffffffffffffffffffffffff169050919050565b600060205280600052604060002060009150905080600001549080600101805461148090612441565b80601f01602080910402602001604051908101604052809291908181526020018280546114ac90612441565b80156114f95780601f106114ce576101008083540402835291602001916114f9565b820191906000526020600020905b8154815290600101906020018083116114dc57829003601f168201915b5050505050908060020160009054906101000a900473ffffffffffffffffffffffffffffffffffffffff169080600301805461153490612441565b80601f016020809104026020016040519081016040528092919081815260200182805461156090612441565b80156115ad5780601f10611582576101008083540402835291602001916115ad565b820191906000526020600020905b81548152906001019060200180831161159057829003601f168201915b5050505050908060040180546115c290612441565b80601f01602080910402602001604051908101604052809291908181526020018280546115ee90612441565b801561163b5780601f106116105761010080835404028352916020019161163b565b820191906000526020600020905b81548152906001019060200180831161161e57829003601f168201915b5050505050908060050154908060060154908060070154908060080154908060090160009054906101000a900473ffffffffffffffffffffffffffffffffffffffff169080600a015490508b565b60016020528060005260406000206000915090508060000180546116ac90612441565b80601f01602080910402602001604051908101604052809291908181526020018280546116d890612441565b80156117255780601f106116fa57610100808354040283529160200191611725565b820191906000526020600020905b81548152906001019060200180831161170857829003601f168201915b5050505050908060010160009054906101000a900460ff16905082565b82805461174e90612441565b90600052602060002090601f01602090048101928261177057600085556117b7565b82601f1061178957805160ff19168380011785556117b7565b828001600101855582156117b7579182015b828111156117b657825182559160200191906001019061179b565b5b5090506117c4919061180d565b5090565b60405180610100016040528060008152602001606081526020016060815260200160608152602001600081526020016000815260200160008152602001600081525090565b5b8082111561182657600081600090555060010161180e565b5090565b6000604051905090565b600080fd5b600080fd5b6000819050919050565b6118518161183e565b811461185c57600080fd5b50565b60008135905061186e81611848565b92915050565b600080fd5b600080fd5b6000601f19601f8301169050919050565b7f4e487b7100000000000000000000000000000000000000000000000000000000600052604160045260246000fd5b6118c78261187e565b810181811067ffffffffffffffff821117156118e6576118e561188f565b5b80604052505050565b60006118f961182a565b905061190582826118be565b919050565b600067ffffffffffffffff8211156119255761192461188f565b5b61192e8261187e565b9050602081019050919050565b82818337600083830152505050565b600061195d6119588461190a565b6118ef565b90508281526020810184848401111561197957611978611879565b5b61198484828561193b565b509392505050565b600082601f8301126119a1576119a0611874565b5b81356119b184826020860161194a565b91505092915050565b600080604083850312156119d1576119d0611834565b5b60006119df8582860161185f565b925050602083013567ffffffffffffffff811115611a00576119ff611839565b5b611a0c8582860161198c565b9150509250929050565b600060208284031215611a2c57611a2b611834565b5b6000611a3a8482850161185f565b91505092915050565b611a4c8161183e565b82525050565b6000602082019050611a676000830184611a43565b92915050565b600073ffffffffffffffffffffffffffffffffffffffff82169050919050565b6000611a9882611a6d565b9050919050565b611aa881611a8d565b82525050565b6000602082019050611ac36000830184611a9f565b92915050565b600081519050919050565b600082825260208201905092915050565b60005b83811015611b03578082015181840152602081019050611ae8565b83811115611b12576000848401525b50505050565b6000611b2382611ac9565b611b2d8185611ad4565b9350611b3d818560208601611ae5565b611b468161187e565b840191505092915050565b6000606082019050611b666000830186611a9f565b8181036020830152611b788185611b18565b9050611b876040830184611a43565b949350505050565b611b988161183e565b82525050565b600082825260208201905092915050565b6000611bba82611ac9565b611bc48185611b9e565b9350611bd4818560208601611ae5565b611bdd8161187e565b840191505092915050565b600061010083016000830151611c016000860182611b8f565b5060208301518482036020860152611c198282611baf565b91505060408301518482036040860152611c338282611baf565b91505060608301518482036060860152611c4d8282611baf565b9150506080830151611c626080860182611b8f565b5060a0830151611c7560a0860182611b8f565b5060c0830151611c8860c0860182611b8f565b5060e0830151611c9b60e0860182611b8f565b508091505092915050565b60006020820190508181036000830152611cc08184611be8565b905092915050565b60008060408385031215611cdf57611cde611834565b5b6000611ced8582860161185f565b9250506020611cfe8582860161185f565b9150509250929050565b6000604082019050611d1d6000830185611a9f565b611d2a6020830184611a43565b9392505050565b600080600080600060a08688031215611d4d57611d4c611834565b5b600086013567ffffffffffffffff811115611d6b57611d6a611839565b5b611d778882890161198c565b955050602086013567ffffffffffffffff811115611d9857611d97611839565b5b611da48882890161198c565b945050604086013567ffffffffffffffff811115611dc557611dc4611839565b5b611dd18882890161198c565b9350506060611de28882890161185f565b9250506080611df38882890161185f565b9150509295509295909350565b600061016082019050611e16600083018e611a43565b8181036020830152611e28818d611b18565b9050611e37604083018c611a9f565b8181036060830152611e49818b611b18565b90508181036080830152611e5d818a611b18565b9050611e6c60a0830189611a43565b611e7960c0830188611a43565b611e8660e0830187611a43565b611e94610100830186611a43565b611ea2610120830185611a9f565b611eb0610140830184611a43565b9c9b505050505050505050505050565b611ec981611a8d565b8114611ed457600080fd5b50565b600081359050611ee681611ec0565b92915050565b600060208284031215611f0257611f01611834565b5b6000611f1084828501611ed7565b91505092915050565b60008115159050919050565b611f2e81611f19565b82525050565b60006040820190508181036000830152611f4e8185611b18565b9050611f5d6020830184611f25565b9392505050565b7f42696420686173206e6f7420737461727465642e000000000000000000000000600082015250565b6000611f9a601483611ad4565b9150611fa582611f64565b602082019050919050565b60006020820190508181036000830152611fc981611f8d565b9050919050565b7f4269642068617320656e6465642e000000000000000000000000000000000000600082015250565b6000612006600e83611ad4565b915061201182611fd0565b602082019050919050565b6000602082019050818103600083015261203581611ff9565b9050919050565b7f4e487b7100000000000000000000000000000000000000000000000000000000600052601160045260246000fd5b60006120768261183e565b91506120818361183e565b9250827fffffffffffffffffffffffffffffffffffffffffffffffffffffffffffffffff038211156120b6576120b561203c565b5b828201905092915050565b60006120cc8261183e565b91507fffffffffffffffffffffffffffffffffffffffffffffffffffffffffffffffff8214156120ff576120fe61203c565b5b600182019050919050565b7f426964206973206c6f776572207468616e207468652063757272656e7420626960008201527f642e000000000000000000000000000000000000000000000000000000000000602082015250565b6000612166602283611ad4565b91506121718261210a565b604082019050919050565b6000602082019050818103600083015261219581612159565b9050919050565b60006121a78261183e565b91506121b28361183e565b9250828210156121c5576121c461203c565b5b828203905092915050565b7f42696420686173206e6f7420656e6465642e0000000000000000000000000000600082015250565b6000612206601283611ad4565b9150612211826121d0565b602082019050919050565b60006020820190508181036000830152612235816121f9565b9050919050565b7f596f7520646f206e6f74206861766520616e796d6f726520657468657220746f60008201527f2077697468647261772066726f6d2074686520636f6e74726163742e00000000602082015250565b6000612298603c83611ad4565b91506122a38261223c565b604082019050919050565b600060208201905081810360008301526122c78161228b565b9050919050565b7f4572726f72000000000000000000000000000000000000000000000000000000600082015250565b6000612304600583611ad4565b915061230f826122ce565b602082019050919050565b60006020820190508181036000830152612333816122f7565b9050919050565b7f4e6f206269647320706c616365642e0000000000000000000000000000000000600082015250565b6000612370600f83611ad4565b915061237b8261233a565b602082019050919050565b6000602082019050818103600083015261239f81612363565b9050919050565b7f5061796d656e74206661696c6564000000000000000000000000000000000000600082015250565b60006123dc600e83611ad4565b91506123e7826123a6565b602082019050919050565b6000602082019050818103600083015261240b816123cf565b9050919050565b7f4e487b7100000000000000000000000000000000000000000000000000000000600052602260045260246000fd5b6000600282049050600182168061245957607f821691505b6020821081141561246d5761246c612412565b5b5091905056fea264697066735822122067eeb750bc0dcb65d3b1e135efbfd118ae4e2bba857626e9ba73c812fdfe7da864736f6c63430008090033",
  "linkReferences": {},
  "deployedLinkReferences": {}
}